:020000040800F2
:1000000000500020C91F0008792000087D2000084A
:1000100081200008852000088920000800000000D9
:100020000000000000000000000000008D2000081B
:100030009120000800000000952000089920000889
:100040001B2000081D2000081F2000082120000898
:100050002320000825200008272000082920000868
:100060002B2000082D2000082F2000083120000838
:100070003320000835200008372000083920000808
:100080003B2000083D2000083F20000841200008D8
:1000900043200008452000084720000849200008A8
:1000A00055170008E91C00084F20000851200008DF
:1000B0007117000855200008572000085920000833
:1000C0005B2000085D2000085F2000086120000818
:1000D00063200008652000086720000869200008E8
:1000E000751700086D2000086F20000810B5054C3A
:1000F000237833B9044B13B10448AFF300800123D4
:10010000237010BD9800002000000000BC2F0008E4
:1001100008B5064B1BB106480649AFF300800648F8
:10012000036813B1054B03B1984708BD00000000F8
:10013000BC2F00089C000020980000200000000058
:10014000154B002B08BF134B9D46A3F5803A0021A9
:100150008B460F461348144A121A02F015FF0F4B34
:10016000002B00D098470E4B002B00D09847002062
:10017000002104000D000D48002802D00C48AFF308
:10018000008002F0DBFE2000290001F0F5FA02F009
:10019000C1FE00BF00000800005000200000000069
:1001A000000000009800002047010020000000002F
:1001B00000000000C37830B47BB90378012103F05C
:1001C0001F0201FA02F15A094FF46143CEF2000313
:1001D000203243F8221030BC70474FF46D43CEF20A
:1001E0000003DB684478DB43C3F302230F22C3F12F
:1001F000040122FA03F304FA01F48578017803EA92
:100200000502224301F160431201D2B203F56143BA
:1002100083F800230278012102F01F0301FA03F1A1
:100220004FF46143CEF20003520943F82210D2E7A3
:1002300008B54FF41053C4F20103984218D04FF49C
:100240002053C4F2010398421ED04FF47053C4F2FD
:100250000103984200D008BD01214FF4004000F096
:1002600025FB4FF400400021BDE8084000F01EBB14
:1002700001214FF4007000F019FB4FF400700021D1
:10028000BDE8084000F012BB01214FF4806000F08F
:100290000DFB4FF480600021BDE8084000F006BB74
:1002A00042680B6822F4702270B422F480720C79D8
:1002B000134343EA0423436086688C68CA684FF29C
:1002C000FD73CFF6F1734D7922433340134343EA74
:1002D000450383600B7CC26A013B22F47002DBB2EF
:1002E00042EA0353C36270BC704700BF002303603F
:1002F000037143718360C36001230374704700BFBF
:10030000836819B923F001038360704743F0010348
:1003100083607047836843F004038360704700BFC5
:100320008068C0F380007047836819B923F4A00384
:100330008360704743F4A00383607047092970B459
:1003400001EB41041ED91E3C072606FA04F603FA07
:1003500004F4C568062A25EA060343EA0403C360D9
:100360001DD90C2A02EB820227D9413A1F2404FA34
:1003700002F401FA02F1C36A23EA04020A43C262E8
:1003800070BC7047072606FA04F603FA04F4056900
:10039000062A25EA060343EA04030361E1D8013A89
:1003A00002EB82021F2404FA02F401FA02F1436B09
:1003B00023EA04020A434263E2E7233A1F2404FAD1
:1003C00002F401FA02F1036B23EA04020A43026316
:1003D000D6E700BFC06C80B2704700BF837910B40D
:1003E000002B2CD04FF48063C4F20103196802681B
:1003F00021EA02021A605968026821EA02025A6080
:100400000279016802F1804202F5823214682143C8
:1004100011609968026821EA02029A60D96802684C
:1004200021EA0202DA604279102A14D002F18042F5
:1004300002F58232116803680B43136009E0037907
:10044000016803F1804303F582331A6822EA01024E
:100450001A6010BC7047996802680A439A60D968AC
:1004600002680A43DA60F4E74FF48063C4F20103E0
:100470001A685B69034004D010420CBF00200120C1
:1004800070471846704700BF4FF48063C4F2010301
:1004900058617047CB782DE9F00303F00F06DB06B7
:1004A00048BF8B780A8848BF1E4312F0FF0F27D041
:1004B0000768002301254FF00F0803E00133082BE4
:1004C0001CD00A8805FA03F42240A242F6D19C000F
:1004D00008FA04F906FA04F491F803C027EA0907B8
:1004E000BCF1280F47EA040708BF4261E6D0BCF11F
:1004F000480F08BF02610133082BE2D107600A8868
:10050000FF2A28D94768002301254FF00F0803E090
:100510000133082B1ED00A8803F1080405FA04F4FD
:100520002240A242F4D19C0008FA04F906FA04F42D
:1005300091F803C027EA0907BCF1280F04BF426104
:1005400091F803C02743BCF1480F08BF0261013393
:10055000082BE0D14760BDE8F003704701617047A8
:100560004161704730B400230028C4F2010300F455
:100570004012B4BFDB695B68B2F5401F84B222D081
:10058000C20217D5C0F30342032505FA02F223EA9B
:10059000020343F0706321B1420D120104FA02F428
:1005A00023430022C4F201020028B4BFD361536088
:1005B00030BC7047420D120104FA02F223EA020332
:1005C00043F07063E7E70022C4F20102556823F0AC
:1005D000706325F070655560DDE700BF01F003032F
:1005E0009B000F2202FA03F200FA03F010B489080C
:1005F0000023C4F20103023153F8214024EA02022D
:1006000043F8212053F82120104343F8210010BC67
:10061000704700BFF0B587B00446868801A80D4634
:1006200000F0D4F8039A4DF68363C4F21B33A3FBA6
:10063000021326F03F06980C3604360C87B23E4370
:10064000A680238848F2A06123F001031B041B0C41
:1006500023802B68C0F201018B4222D85B00B2FBE1
:10066000F3F292B201372784032A98BF0422A283AF
:1006700023889BB243F0010323802388698923F4F4
:100680008163AA8823F002031B040A431B0C134353
:100690009BB223802A89AB8913439BB2238107B085
:1006A000F0BDEE884BF6FF718E421DBF03EB830356
:1006B00003EB8303B2FBF3F203EB43030CBFB2FB88
:1006C000F3F242F4804292B213051B0D0BB942F0D3
:1006D00001024FF4967101FB00F044F6D351C1F2D0
:1006E000620181FB00318909013142F40042218419
:1006F000BDE700BF002341F28832026083804BF6E1
:10070000FF72038143814FF48043C280838170472D
:10071000038829B923F001031B041B0C03807047D5
:100720009BB243F001030380704700BF038829B9DF
:1007300023F480731B041B0C038070479BB243F4AB
:1007400080730380704700BF038829B923F40073C6
:100750001B041B0C038070479BB243F4007303809F
:10076000704700BF018270471AB901F0FE01018293
:10077000704741F001010182704700BF838A028BFC
:100780009BB243EA0240084020F07F400B1A5842D7
:100790005841704782B000230A0F009301930190E3
:1007A0000092009B21F07F4153B1019B14330193D0
:1007B000019B1B6819420CBF0020012002B070474A
:1007C000019B090C18330193F2E700BF10B44FF4FA
:1007D0008053C4F202035A6802F00C02042A01D0CA
:1007E000082A28D04FF49052C0F27A0202604FF4E7
:1007F0008053C4F202035C681C49C4F303140C5D0B
:1008000022FA04F242605C68C4F302240C5D22FA0E
:1008100004F484605C68C4F3C224095D22FA01F226
:10082000C2605B681249C3F38133CB5CB2FBF3F265
:10083000026110BC70475A685968C2F383420232A1
:10084000CC030AD55B68990307D44FF49053C0F2E8
:100850007A0303FB02F20260C9E74FF41063C0F2AF
:100860003D0303FB02F20260C1E700BF0400002069
:10087000000000204FF48053C4F202039A6919B9B2
:1008800022EA00009861704710439861704700BFEA
:100890004FF48053C4F20203DA6919B922EA000066
:1008A000D86170471043D861704700BF4FF4805340
:1008B000C4F20203DA6819B922EA0000D86070476E
:1008C0001043D860704700BF4FF48053C4F2020356
:1008D0001A6919B922EA00001861704710431861BB
:1008E000704700BF08B54FF43053C4F2010398427B
:1008F00000F08480B0F1804F00F08C804FF4806372
:10090000C4F20003984200F08F804FF40063C4F2F9
:100910000003984200F092804FF44063C4F2000359
:10092000984200F095804FF48053C4F2000398423F
:1009300000F098804FF4A053C4F20003984200F0F6
:100940009B804FF45053C4F20103984200F09E8004
:100950004FF49843C4F20103984200F0A3804FF48F
:10096000A043C4F20103984200F0A8804FF4A843CA
:10097000C4F20103984200F0AD804FF4C053C4F2BA
:100980000003984200F0B2804FF4E053C4F2000339
:10099000984200F0B5804FF40053C4F2000398422F
:1009A00000F0B8804FF48043C4F20103984200F095
:1009B000BD804FF48843C4F20103984206D04FF43F
:1009C0009043C4F2010398420CD008BD01214FF4BA
:1009D0000030FFF76BFF4FF400300021BDE8084006
:1009E000FFF764BF01214FF48020FFF75FFF4FF452
:1009F00080200021BDE80840FFF758BF01214FF4D7
:100A00000060FFF753FF4FF400600021BDE808408D
:100A1000FFF74CBF01200146FFF756FF01200021E0
:100A2000BDE80840FFF750BF02200121FFF74CFF4F
:100A300002200021BDE80840FFF746BF0420012145
:100A4000FFF742FF04200021BDE80840FFF73CBF4C
:100A500008200121FFF738FF08200021BDE80840E9
:100A6000FFF732BF10200121FFF72EFF10200021D9
:100A7000BDE80840FFF728BF20200121FFF724FF31
:100A800020200021BDE80840FFF71EBF01214FF4E0
:100A90000050FFF70BFF4FF400500021BDE8084065
:100AA000FFF704BF01214FF40020FFF7FFFE4FF4D2
:100AB00000200021BDE80840FFF7F8BE01214FF4F7
:100AC0008010FFF7F3FE4FF480100021BDE80840CE
:100AD000FFF7ECBE01214FF40010FFF7E7FE4FF4E3
:100AE00000100021BDE80840FFF7E0BE40200121D2
:100AF000FFF7EAFE40200021BDE80840FFF7E4BE12
:100B000080200121FFF7E0FE80200021BDE80840A1
:100B1000FFF7DABE01214FF48070FFF7D5FE4FF4E6
:100B200080700021BDE80840FFF7CEBE01214FF4E0
:100B30008030FFF7BBFE4FF480300021BDE8084055
:100B4000FFF7B4BE70B44FF430524FF45054C4F2B7
:100B500001020388C4F20104904218BFA0429BB274
:100B600014BF0022012208D04FF48064C4F20004B4
:100B7000B0F1804F18BFA04236D14FF68F754C8828
:100B80001D4045EA04034FF4A0564FF48055C4F2CB
:100B90000005C4F20006B04218BFA8421FBFCD88AE
:100BA0004FF6FF441C4044EA050303808B8883858D
:100BB0000B8803855AB94FF488424FF48043C4F23E
:100BC0000102C4F20103984218BF904205D10B7A8A
:100BD00003860123838270BC70474FF49043C4F2B4
:100BE00001039842F5D1F2E74FF440654FF40064F9
:100BF000C4F20005C4F20004A04218BFA842C2D14A
:100C0000BBE700BF038C2DE9F00123F001031B04B7
:100C10001B0C0384038C0D8984884F88028B2F431F
:100C200022F0730223F002034FF450564FF4305574
:100C300012041B04B1F800C0C4F20106C4F201059D
:100C4000120C1B0CBFB2A84218BFB042A4B242EAB9
:100C50000C0247EA03030BD04FF488464FF480455B
:100C6000C4F20106C4F20105A84218BFB0421ED169
:100C70004FF6F775B1F80AC0B1F80E808F891D40A4
:100C800045EA0C0C4FF6FB738E884FF6FF4548EA99
:100C9000070725400CEA0303BCB233432C4384808E
:100CA0000283CA8882860384BDE8F00170474FF44E
:100CB0009045C4F20105A842F1D1D9E7038CF0B404
:100CC00023F010031B041B0C0384028C848822F085
:100CD0002002038B12040D89120C23F4E6431B043B
:100CE00042EA0512B1F800C04F884FF450564FF455
:100CF00030551B0CC4F20106C4F2010543EA0C2373
:100D000042EA0712A84218BFB042A4B29BB292B204
:100D100017D14F894FF67F7616404FF2FF35B1F865
:100D20000CC0254046EA07164FF6BF728F88CC8963
:100D3000324045EA8C0542EA071245EA840492B241
:100D4000A4B284800383CB8803870284F0BC7047FD
:100D5000038CF0B423F480731B041B0C0384028CFB
:100D60000D8922F4007284881204838B120C42EAEB
:100D7000052223F07303B1F802C04FF450564FF42C
:100D800030551B040F88C4F20106C4F201051B0C88
:100D900042EA0C22A84218BFB042A4B243EA0703B9
:100DA00092B217D14F894FF2FF7616404CF6FF757D
:100DB000B1F80CC0254046EA07264FF6FF328F886F
:100DC000CC89324045EA0C1542EA072245EA041470
:100DD00092B2A4B284808383CB8883870284F0BCE0
:100DE000704700BF038CF0B423F480531B041B0C2A
:100DF0000384028C0D8922F4005284881204838BB0
:100E0000120C42EA053223F4E6434FF450564FF4F5
:100E10003055C4F20105C4F201061B041B0CA842A4
:100E200018BFB042B1F800C008BF8E89A4B202BF9B
:100E30004BF6FF75254045EA861443EA0C234F889C
:100E40009BB208BFA4B284808383CB8842EA073276
:100E500092B2A0F840300284F0BC704730B40B88E6
:100E60004D888C88CA882B4323430D894C891343B2
:100E70002B438A89234313439BB2A0F8443030BCF0
:100E8000704700BF00234FF6FF7181800380C3804D
:100E900043800372704700BF002303804380838038
:100EA000C380038143818381C38170470023038012
:100EB00043808380C380038143818381704700BF67
:100EC000038829B923F001031B041B0C038070471E
:100ED0009BB243F001030380704700BFB0F8443079
:100EE00021B95B045B0CA0F8443070476FEA4343C0
:100EF0006FEA53439BB2A0F84430704783899BB29A
:100F00001AB923EA01018181704719438181704731
:100F1000038B23F070031B041B0C194301837047E0
:100F2000038B23F4E0431B041B0C43EA01218BB227
:100F300003837047838B23F070031B041B0C19433E
:100F400081837047838B23F4E0431B041B0C43EA2B
:100F500001218BB283837047038A828911420CBFBF
:100F60000020012019420CBF002000F00100704752
:100F7000C94389B20182704710B54FF48063C4F24F
:100F800001031A684FF0804042F480521A60FFF764
:100F9000A9FC40F20C13C2F200034FF6FF740022CA
:100FA00019469C804FF0804002241C80DA805A80D1
:100FB000FFF7C8FD4FF080400121BDE81040FFF76A
:100FC000D7BF00BFF0B5012087B00146FFF760FC36
:100FD00001210520FFF74EFC00242822012301A84F
:100FE0008DF804208DF806308DF807308DF8054017
:100FF000FFF7E0F81C2301A88DF8043002238DF8D8
:101000000630FFF7D7F84FF48053ADF804304FF4B3
:101010000060042301A9C4F201008DF80730032306
:101020008DF80630FFF736FA0C212046FFF7D6FA86
:1010300001A8FFF7CBFB4FF48053C4F202035A68B8
:10104000039BC2F30222032A68D84AF6AB21CAF6F0
:10105000AA21A1FB0321490844F6D353C1F262033C
:10106000A3FB0171324A89091160116840F2F266EE
:1010700006FB01F611681068156840F274471468A1
:10108000126807FB05F540F6AC0EC83707FB04F401
:101090000EFB02FEC1EBC101A3FB067200EB800058
:1010A000C1EBC111C601A3FB0107A3FB0505A3FB0F
:1010B0000616A3FB0414A3FB0E03DFF890E09209CD
:1010C000AEF8002091B21B4ABF0917801A4AB60930
:1010D00016801A4AAD091580194AA4091480194AC4
:1010E0009B09138001EB4101174B89104FF480508D
:1010F0001980FFF7C9F94FF48053019300238DF84D
:101100000830102301A88DF8093001238DF80A302A
:10111000FFF764F9FFF730FF07B0F0BD4AF6AB22E6
:101120005900CAF6AA22A2FB0101490894E700BFB0
:10113000CC000020C6000020B6000020C80000201F
:10114000C4000020BA000020C0000020B800002029
:1011500070B54FF080400121FFF7FEFE002823D03C
:101160001B4B4FF40062C4F2010296681978194CC7
:1011700006F480564A1C184D2078B6B2D2B225F833
:1011800011601A7040B10D2A0FD04FF0804001213C
:10119000BDE87040FFF7ECBE104908884FF0804171
:1011A000888501212170EEE770BD00251D700126A4
:1011B0000B4B31464FF080402A461E702570FFF7DA
:1011C0009DFE4FF080402946FFF77AFEDDE700BF25
:1011D000BC000020BD00002018010020B800002045
:1011E000C200002010B54FF48050FFF73DF998B1D0
:1011F000474C23780133DBB223702178012956D084
:101200002378022B09D02378032B58D04FF4805039
:10121000BDE81040FFF738B910BD00214FF0804005
:10122000FFF74EFE4FF08042918C3A4B89B2198005
:101230000021918438491A88098892B2914209D8CC
:1012400036491A88098892B2914203D3344B01225D
:101250001A70DBE7334A1B8812889BB29A424ED839
:101260002C4B314A1B8812889BB29A4247D34FF4C9
:101270008063C4F201031A684FF0804022F4805268
:101280001A600121FFF71CFE01210A464FF0804041
:10129000FFF734FE254B4FF08042198800239185DB
:1012A0001F4A01211170224A13702370AEE74FF0DC
:1012B0008043002218469A84FFF702FEA6E74FF407
:1012C0008063C4F201031A684FF0804022F4805218
:1012D0001A600121FFF7F4FD01210A464FF080401A
:1012E000FFF70CFE114B4FF08042198801239185C6
:1012F0000B4A13700E4A13700023237086E70023F5
:101300004FF080429384064A137023707EE700BF3B
:10131000B4000020D0000020B6000020C80000204B
:1013200014000020C4000020BA000020C0000020EB
:10133000BE00002010B5002382B02D4A8DF8003089
:101340008DF801308DF80230138803F480539BB27E
:10135000002B4AD001238DF8003001239DF80110A5
:101360004900C9B28DF8011032F81310013301F4AD
:10137000805189B229B19DF8011041F001018DF829
:101380000110062BEAD19DF802104900C9B28DF870
:10139000021032F81310013301F4805189B229B1DF
:1013A0009DF8021041F001018DF802100C2BEAD1DA
:1013B000104B1B782BB99DF8023043F040038DF899
:1013C00002300D4B00241C70FFF7D6FD009B204619
:1013D000DAB262F30700C3F3072262F30F20C3F30C
:1013E000074363F3174002B010BD8DF80030B4E737
:1013F00018010020BE000020C200002030B54FF4CC
:10140000A84087B00121C4F20000FFF781F9012153
:101410004FF40010FFF73CFAC023ADF804304FF44E
:101420004060032301A98DF80630C4F201001C239B
:101430008DF80730FFF72EF801214FF40010FFF769
:1014400043FA00214FF40010FFF73EFA02A8FFF71D
:1014500051F94FF480420024100448F2A063C0F216
:101460000103ADF80C404BF6FF75ADF8104040F4A9
:10147000A8404FF4806402A9ADF80E50ADF81240B8
:10148000ADF814200293FFF7C5F807B030BD00BFD8
:1014900070B506460D464FF4A840C4F200004FF464
:1014A0000031FFF777F90028F5D14FF4A840C4F2D6
:1014B00000000121FFF73AF9652401E0013C0AD060
:1014C0004FF4A8400121C4F20000C1F20001FFF76F
:1014D00061F90028F2D071004FF4A840C4F2000076
:1014E00001F0FE010022FFF73FF9652401E0013C15
:1014F0000AD04FF4A8408221C4F20000C0F20701D4
:10150000FFF73CF90028F2D04FF4A840C4F20000E5
:101510002946FFF727F9652401E0013C0AD04FF482
:10152000A8408421C4F20000C0F20701FFF726F9A9
:101530000028F2D04FF4A840C4F200000121FFF7C8
:1015400003F94FF4A8401021C4F20000C1F20001D9
:10155000FFF720F90028F4D170BD00BFF8B515469B
:10156000202D28BF202504461F469DF81860FFF750
:101570008FFF05F140012046C9B2202F28BF202748
:10158000FFF786FF07F160012046C9B2FFF780FF31
:10159000202E34BF31462021204681F08001BDE855
:1015A000F840FFF775BF00BF70B5082082B0012179
:1015B000FFF77CF908200021FFF778F901214FF4AB
:1015C0000060FFF757F908200121FFF753F90420C5
:1015D0000121FFF76BF904200021FFF767F90420D0
:1015E0000121FFF747F901200146FFF75FF90120CC
:1015F0000021FFF75BF94FF400640120C4F20104FD
:101600000146FFF737F9032510232026204601A9BC
:101610008DF80730ADF804608DF80650FEF73AFFFC
:1016200020463146FEF79AFF4FF47063204601A929
:10163000ADF8043018238DF807308DF80650FEF70A
:1016400029FF4023204601A9ADF8043048238DF836
:1016500007308DF80650FEF71DFF4020C0F216003F
:101660000121FEF77FFF02B070BD00BFF0B54FF45F
:1016700030558DB0C4F2010501A80024FFF702FC2B
:101680004FF4C877212201A92846ADF80420ADF80F
:101690000640ADF80870ADF80A408DF80C40FFF731
:1016A00051FA08A8FFF7F8FB01264023284608A9AD
:1016B000ADF82030ADF82C40ADF82840ADF82260F0
:1016C000ADF82670ADF82440ADF82E40FFF79AFA39
:1016D000284608A9FFF7F2FA284608A9FFF738FBC1
:1016E00008A92846FFF77EFB04A8FFF7DFFB4FF4AD
:1016F0008063ADF812304FF4006304A92846ADF8BA
:1017000010304FF48053ADF81830ADF81640ADF8F6
:101710001A40ADF81440FFF7A1FB2846812132465C
:10172000FFF7ECFB28463146FFF7CAFB0DB0F0BDD2
:1017300000B5192283B001238DF8042001A80022EE
:101740008DF805208DF806308DF80730FEF732FD54
:1017500003B000BD40F228034FF43050C2F2000342
:101760000122C4F2010080211A60FFF701BC00BF12
:10177000FFF7EEBCFFF736BD2DE9F04F002487B030
:10178000FFF712FF00F0A2FBFFF738FE39202821F7
:101790002246234600941F25FFF7E0FE382028212B
:1017A000224623460094FFF7D9FE2A462B463920CD
:1017B0002F210095FFF7D2FE2A462F212B463820F5
:1017C0000095FFF7CBFEFFF7B3FFFFF74FFF0123B5
:1017D000182205A88DF814208DF816308DF81730D2
:1017E0008DF81540C24FFEF7E5FCDFF818B3FFF7A0
:1017F000E9FBC04DDFF81093DFF8108378E0BE4BB3
:1018000020461C6000F0AEFDB7A3D3E9002300F032
:1018100027FF01F00DF840F2F40240F2E003012648
:10182000C2F20002C2F2000310601E6040F2180013
:10183000C2F2000004680021C4F2A011204601F0A9
:1018400039FB20B10024AD4BC4F2A0141C60D9F8C0
:101850000000214601F006FB002814BF304646F088
:101860000100002876D040F2F401C2F200010868BD
:10187000C9F8004001F00EF9214601F05FF94FF080
:10188000814101F05BF901F01FFB40F2F003C2F26D
:101890000003DFF87CA21860002800F09C81B0F5FE
:1018A000966F40F3A0814FF496621A604FF0814129
:1018B000204601F043F901460020C4F2964001F0B1
:1018C000F1F901F001FB0123CAF8000040F2041213
:1018D000C2F2000213600123C8F80030002E3BD092
:1018E0002B604FF43050C4F201000121FFF7F6FAEB
:1018F00000F02EFB3B78012B34D02B68002BF0D16D
:10190000DBF800400026C4F2F01620463146DFF82E
:10191000F4A101F0CFFA38B90026CCF2F016204637
:10192000314601F0A9FA10B1CAF80060344640F21D
:101930002C01C2F200010868214601F093FA002848
:101940003FF45DAF40F2E00E0026C2F2000ECEF88A
:1019500000606BE7C8F80000D8F80030003318BF0B
:101960000123BDE7FFF7E6FC8DF80800C0F307226E
:10197000C0F3074340F224008DF809208DF80A30A7
:10198000C2F20000029B027840F24416DFF884E1C4
:10199000190CC2F20006012A33808EF8001000F004
:1019A000318140F2E800C2F20000027840F24413B4
:1019B000C2F200031978524B91429ED01A789B785C
:1019C00040F2E806C2F20006013B32700B2B94D8BD
:1019D0000FF2040E5EF823F0B31B0008A51B0008ED
:1019E0007D1B00085D1B0008191B0008C91A0008B0
:1019F000A11A0008831A0008491A0008FB180008F9
:101A0000FB180008091A000840F2180E0024C2F260
:101A1000000E002638202821224623460094CEF8C6
:101A20000060CBF80060FFF799FD3920282122469D
:101A300000942346FFF792FD4FF40060C4F20100CA
:101A40002021FEF78DFD58E74FF0804ECBF800E0E7
:101A5000002640F2180E0024C4F22016C2F2000E36
:101A600000942246234639202821CEF80060FFF753
:101A700075FD22460094382028212346FFF76EFD8D
:101A80003BE7DBF800004FF07E5100F04DFF0024F3
:101A9000CBF8000022462346009439202821E6E7AF
:101AA0000026C4F27016CBF8006040F2180600243D
:101AB0004FF0804EC2F200060094224623463920A1
:101AC0002821C6F800E0D2E740F21801C2F2000176
:101AD00008684FF07E5100F029FF40F21802C2F270
:101AE0000002106009E700BF17D9CEF753E3C53FE6
:101AF000C2000020DC0000202C0000201800002084
:101B0000440100201C00002020000020D8000020FC
:101B1000F40000204601002040F2180E0024C2F21A
:101B2000000E002639202821224623460094CEF8B4
:101B30000060CBF80060FFF711FD382022462346F5
:101B400000942821FFF70AFD40F22800C2F20000AD
:101B500003683E4A002B76D01460CEE640F2180EA1
:101B6000C2F2000EDEF800004FF07E5100F0DCFE05
:101B700040F21801C2F200010860BEE60026C4F27D
:101B8000A016CBF8006040F2180600244FF07E5EED
:101B9000C2F2000600942246234639202821C6F8C6
:101BA00000E064E7DBF800004FF07E5100F0BEFE7D
:101BB0006DE7002640F2180E0024C4F2A006C2F21F
:101BC000000E00942246234639202821CBF80060DD
:101BD000CEF800604BE740F2041E0A23C2F2000E6A
:101BE000CEF8003077E64FF6503210F5966FCFF60C
:101BF000FF7216DB4FF4966393FBF0F3002BB8BF34
:101C00005B4263E6124B40F2E8011A78C2F200012F
:101C100002F0010282F001020E4B0A7000211970DD
:101C2000C4E61A604FF08141204600F087FF01466C
:101C30000020CCF2964001F035F801F045F901237F
:101C4000CAF8000042E60123136056E6280000208F
:101C5000440100202400002008B51F4B4FF43050F1
:101C60001B68C4F20100012B25D04021FFF750F979
:101C70001A4B4FF430501B68C4F20100012B22D0E4
:101C80004021FFF74DF9164B4FF430501B68C4F25A
:101C90000100012B13D04021FFF74CF9114B4FF4F9
:101CA00030501B68C4F20100012B10D04021BDE868
:101CB0000840FFF747B95021FFF72AF9D8E750212C
:101CC000FFF738F9EAE75021FFF72AF9DBE750215F
:101CD000BDE80840FFF736B9380100204001002078
:101CE000340100203C010020F8B5694A1368C3B9EB
:101CF000684B1B68002B2ED0674A1368013B002BF2
:101D0000136043DD654B1B68082B2FD8DFE813F009
:101D10002500B00090008D00820077006C0061000B
:101D200058005F4B5B4D18685E4B5F491B685F4C0A
:101D30002B605F4D09682860574D246828605D4816
:101D4000A14201601DDA5C494FF0FF3008600021BC
:101D50001160002BD0D1514A1360584A0023136000
:101D6000574A1360574A1360574A1360FFF774FFCE
:101D70004FF43050C4F201000121BDE8F840FFF7F4
:101D8000F7B822DD4C4901200860E0E7494B474C99
:101D90001B682168002BB8BF5B428B4253DC3F4875
:101DA000434D03682D68444E0139013B4FF0FF3726
:101DB0003760156021600360002BA5DC08230360F9
:101DC0003E4A012100231160CAE7002CBBDCBED0D3
:101DD000D8E70123002239490B6039490A603949A3
:101DE0000A60394A1360C1E7344A00231360344A59
:101DF0001360344A1360344B01221A60B6E70022A4
:101E000001232E490A602E490B602E490A602E4A92
:101E10001360ABE7294A00231360294A01211160AE
:101E2000284A1360284A1360A0E700230122D2E762
:101E3000224A00231360224A01211360214A1160C3
:101E4000214A136092E75B429942144813DD1A4B12
:101E5000174E1D68036836684919EB18002D166087
:101E600021600360A8DD082B7FF74EAF01230360DC
:101E700001220023C5E70E4D03682D680E4E013187
:101E8000013301273760156021600360EBE700BF75
:101E9000DC000020FC000020D4000020E400002032
:101EA00004010020F0000020F4000020EC000020DD
:101EB00008010020F8000020000100203801002067
:101EC00040010020340100203C01002070B54FF497
:101ED0001054C4F2010486B02046FEF7A9F901218E
:101EE0004FF40070FEF7C6FC02234FF4006001259A
:101EF00069468DF80230C4F2010004238DF80330E6
:101F0000ADF80050FEF7C6FA01A8FEF7EFF900267B
:101F10004FF46023204601A9039301968DF80860D1
:101F20008DF8095004968DF81450FEF7B9F929463A
:101F30002046FEF7E5F92046FEF7ECF9204631464B
:101F40002A462B46FEF7FAF906B070BD00000000E5
:101F50004FF4105008B5C4F201000121FEF7E4F976
:101F60004FF41050C4F20100FEF7DAF90128F7D05F
:101F70004FF41050C4F20100FEF72CFA00F086FD79
:101F800000F0F0F90CA3D3E9002300F03FFA00F0D1
:101F900077FC4FF47041C4F27F5100F083FE00F0F3
:101FA000E1F907A3D3E9002300F05AFB00F068FC35
:101FB00008BD00BFAFF300806666666666660A40CD
:101FC00084D382177D05E73F0549064A064B9A42AE
:101FD000BEBF51F8040B42F8040BF8E70348004772
:101FE000C82F0008000000209800002041010008D0
:101FF0001F49204A002301E041F8043B9142FBD3F2
:10200000FFF7BAFBFEE7FEE7FEE7FEE7FEE7FEE7C7
:10201000FEE7FEE7FEE7FEE7FEE7FEE7FEE7FEE798
:10202000FEE7FEE7FEE7FEE7FEE7FEE7FEE7FEE788
:10203000FEE7FEE7FEE7FEE7FEE7FEE7FEE7FEE778
:10204000FEE7FEE7FEE7FEE7FEE7FEE7FEE7FEE768
:10205000FEE7FEE7FEE7FEE7FEE7FEE7FEE7FEE758
:10206000FEE7FEE7FEE7FEE7FEE7FEE7FEE7FEE748
:102070009800002047010020704700BFFEE700BF26
:10208000FEE700BFFEE700BFFEE700BF704700BFEE
:10209000704700BF704700BF704700BF81F000412C
:1020A00002E000BF83F0004330B54FEA41044FEA3D
:1020B000430594EA050F08BF90EA020F1FBF54EAD8
:1020C000000C55EA020C7FEA645C7FEA655C00F074
:1020D000E2804FEA5454D4EB5555B8BF6D420CDD45
:1020E0002C4480EA020281EA030382EA000083EAC8
:1020F000010180EA020281EA0303362D88BF30BD68
:1021000011F0004F4FEA01314FF4801C4CEA1131BD
:1021100002D0404261EB410113F0004F4FEA03331C
:102120004CEA133302D0524263EB430394EA050FA7
:1021300000F0A780A4F10104D5F1200E0DDB02FA16
:102140000EFC22FA05F2801841F1000103FA0EF2AA
:10215000801843FA05F359410EE0A5F120050EF170
:10216000200E012A03FA0EFC28BF4CF0020C43FAA1
:1021700005F3C01851EBE37101F0004507D54FF0AE
:10218000000EDCF1000C7EEB00006EEB0101B1F5FE
:10219000801F1BD3B1F5001F0CD349085FEA300044
:1021A0004FEA3C0C04F101044FEA445212F5800F4F
:1021B00080F09A80BCF1004F08BF5FEA500C50F1EC
:1021C000000041EB045141EA050130BD5FEA4C0CCF
:1021D000404141EB010111F4801FA4F10104E9D158
:1021E00091F0000F04BF01460020B1FA81F308BF4F
:1021F0002033A3F10B03B3F120020CDA0C3208DD1B
:1022000002F1140CC2F10C0201FA0CF021FA02F1F5
:102210000CE002F11402D8BFC2F1200C01FA02F165
:1022200020FA0CFCDCBF41EA0C019040E41AA2BF8A
:1022300001EB0451294330BD6FEA04041F3C1CDA52
:102240000C340EDC04F11404C4F1200220FA04F072
:1022500001FA02F340EA030021FA04F345EA03011C
:1022600030BDC4F10C04C4F1200220FA02F001FADE
:1022700004F340EA0300294630BD21FA04F0294660
:1022800030BD94F0000F83F4801306BF81F48011F9
:102290000134013D4EE77FEA645C18BF7FEA655C6C
:1022A00029D094EA050F08BF90EA020F05D054EA3E
:1022B000000C04BF1946104630BD91EA030F1EBF43
:1022C0000021002030BD5FEA545C05D14000494147
:1022D00028BF41F0004130BD14F580043CBF01F53A
:1022E000801130BD01F0004545F0FE4141F4700120
:1022F0004FF0000030BD7FEA645C1ABF19461046FB
:102300007FEA655C1CBF0B46024650EA013406BFFB
:1023100052EA033591EA030F41F4002130BD00BFBA
:1023200090F0000F04BF0021704730B54FF4806477
:1023300004F132044FF000054FF0000150E700BFF8
:1023400090F0000F04BF0021704730B54FF4806457
:1023500004F1320410F0004548BF40424FF0000144
:102360003EE700BF42004FEAE2014FEA31014FEA87
:1023700002701FBF12F07F4393F07F4F81F06051D6
:10238000704792F0000F14BF93F07F4F704730B545
:102390004FF4607401F0004521F0004120E700BFD8
:1023A00050EA010208BF704730B54FF000050AE05F
:1023B00050EA010208BF704730B511F0004502D560
:1023C000404261EB41014FF4806404F132045FEA62
:1023D000915C3FF4DCAE4FF003025FEADC0C18BF07
:1023E00003325FEADC0C18BF033202EBDC02C2F1FD
:1023F000200300FA03FC20FA02F001FA03FE40EA8F
:102400000E0021FA02F11444C1E600BF70B54FF08E
:10241000FF0C4CF4E06C1CEA11541DBF1CEA135570
:1024200094EA0C0F95EA0C0F00F0DEF82C4481EAD8
:10243000030621EA4C5123EA4C5350EA013518BFF8
:1024400052EA033541F4801143F4801338D0A0FBE5
:1024500002CE4FF00005E1FB02E506F00042E0FB92
:1024600003E54FF00006E1FB03569CF0000F18BF98
:102470004EF0010EA4F1FF04B6F5007F64F5407440
:1024800004D25FEA4E0E6D4146EB060642EAC621D3
:1024900041EA55514FEAC52040EA5E504FEACE2E40
:1024A000B4F1FD0C88BFBCF5E06F1ED8BEF1004F43
:1024B00008BF5FEA500E50F1000041EB045170BDBF
:1024C00006F0004646EA010140EA020081EA030103
:1024D000B4EB5C04C2BFD4EB0C0541EA045170BDFF
:1024E00041F480114FF0000E013C00F3AB8014F179
:1024F000360FDEBF002001F0004170BDC4F10004C2
:10250000203C35DA0C341BDC04F11404C4F1200542
:1025100000FA05F320FA04F001FA05F240EA02009D
:1025200001F0004221F0004110EBD37021FA04F6D3
:1025300042EB06015EEA430E08BF20EAD37070BD8D
:10254000C4F10C04C4F1200500FA04F320FA05F0EC
:1025500001FA04F240EA020001F0004110EBD370EE
:1025600041F100015EEA430E08BF20EAD37070BD5E
:10257000C4F1200500FA05F24EEA020E20FA04F337
:1025800001FA05F243EA020321FA04F001F00041E6
:1025900021FA04F220EA020000EBD3705EEA430E57
:1025A00008BF20EAD37070BD94F0000F0FD101F086
:1025B0000046400041EB010111F4801F08BF013CBF
:1025C000F7D041EA060195F0000F18BF704703F0FD
:1025D0000046520043EB030313F4801F08BF013D84
:1025E000F7D043EA0603704794EA0C0F0CEA135540
:1025F00018BF95EA0C0F0CD050EA410618BF52EAFA
:102600004306D1D181EA030101F000414FF00000FF
:1026100070BD50EA410606BF1046194652EA43060D
:1026200019D094EA0C0F02D150EA013613D195EA81
:102630000C0F05D152EA03361CBF104619460AD1C9
:1026400081EA030101F0004141F0FE4141F47001D3
:102650004FF0000070BD41F0FE4141F4780170BDC3
:1026600070B54FF0FF0C4CF4E06C1CEA11541DBF28
:102670001CEA135594EA0C0F95EA0C0F00F0A7F82A
:10268000A4EB050481EA030E52EA03354FEA013157
:1026900000F088804FEA03334FF0805545EA13136A
:1026A00043EA12634FEA022245EA111545EA106532
:1026B0004FEA00260EF000419D4208BF964244F1C9
:1026C000FD0404F5407402D25B084FEA3202B61AE8
:1026D00065EB03055B084FEA32024FF480104FF4BC
:1026E000002CB6EB020E75EB030E22BFB61A754630
:1026F00040EA0C005B084FEA3202B6EB020E75EBC3
:10270000030E22BFB61A754640EA5C005B084FEA2A
:102710003202B6EB020E75EB030E22BFB61A7546F7
:1027200040EA9C005B084FEA3202B6EB020E75EB02
:10273000030E22BFB61A754640EADC0055EA060EC3
:1027400018D04FEA051545EA16754FEA06164FEA06
:10275000C30343EA52734FEAC2025FEA1C1CC0D1B2
:1027600011F4801F0BD141EA00014FF000004FF03F
:10277000004CB6E711F4801F04BF01430020B4F100
:10278000FD0C88BFBCF5E06F3FF6AFAEB5EB030CB8
:1027900004BFB6EB020C5FEA500C50F1000041EBB5
:1027A000045170BD0EF0004E4EEA113114EB5C0482
:1027B000C2BFD4EB0C0541EA045170BD41F4801155
:1027C0004FF0000E013C90E645EA060E8DE60CEA5D
:1027D000135594EA0C0F08BF95EA0C0F3FF43BAF7A
:1027E00094EA0C0F0AD150EA01347FF434AF95EA31
:1027F0000C0F7FF425AF104619462CE795EA0C0F15
:1028000006D152EA03353FF4FDAE1046194622E7E1
:1028100050EA410618BF52EA43067FF4C5AE50EABB
:1028200041047FF40DAF52EA43057FF4EBAE12E7AB
:102830004FEA410212F5001215D211D56FF47873E8
:10284000B3EB625212D94FEAC12343F0004343EA8B
:10285000505311F0004F23FA02F018BF4042704766
:102860004FF00000704750EA013005D111F00040F0
:1028700008BF6FF0004070474FF00000704700BF86
:102880004FEA4102B2F1E04324BFB3F5001CDCF192
:10289000FE5C0DD901F0004C4FEAC0024CEA5070CA
:1028A000B2F1004F40EB830008BF20F001007047F9
:1028B00011F0804F21D113F13872BCBF01F00040FC
:1028C000704741F480114FEA5252C2F11802C2F12E
:1028D000200C10FA0CF320FA02F018BF40F00100AF
:1028E0004FEAC1234FEAD32303FA0CFC40EA0C0061
:1028F00023FA02F34FEA4303CCE77FEA625307D19E
:1029000050EA01331EBF4FF0FE4040F440007047D4
:1029100001F0004040F0FE4040F40000704700BF6E
:1029200080F0004002E000BF81F0004142001FBF84
:102930005FEA410392EA030F7FEA226C7FEA236C8D
:102940006AD04FEA1262D2EB1363C1BFD218414082
:1029500048404140B8BF5B42192B88BF704710F018
:10296000004F40F4000020F07F4018BF404211F0BB
:10297000004F41F4000121F07F4118BF494292EA23
:10298000030F3FD0A2F1010241FA03FC10EB0C004F
:10299000C3F1200301FA03F100F0004302D54942DC
:1029A00060EB4000B0F5000F13D3B0F1807F06D389
:1029B00040084FEA310102F10102FE2A51D2B1F181
:1029C000004F40EBC25008BF20F0010040EA030076
:1029D0007047490040EB000010F4000FA2F1010223
:1029E000EDD1B0FA80FCACF1080CB2EB0C0200FAAD
:1029F0000CF0AABF00EBC25052421843BCBFD040FB
:102A00001843704792F0000F81F4000106BF80F474
:102A100000000132013BB5E74FEA41037FEA226C37
:102A200018BF7FEA236C21D092EA030F04D092F002
:102A3000000F08BF0846704790EA010F1CBF002036
:102A4000704712F07F4F04D1400028BF40F0004093
:102A5000704712F100723CBF00F50000704700F0B3
:102A6000004343F0FE4040F4000070477FEA2262DA
:102A700016BF08467FEA23630146420206BF5FEAAB
:102A8000412390EA010F40F4800070474FF00003AB
:102A900004E000BF10F0004348BF40425FEA000C72
:102AA00008BF704743F0964301464FF000001CE01A
:102AB00050EA010208BF70474FF000030AE000BF70
:102AC00050EA010208BF704711F0004302D54042AE
:102AD00061EB41015FEA010C02BF84460146002020
:102AE00043F0B64308BFA3F18053A3F50003BCFA3B
:102AF0008CF2083AA3EBC25310DB01FA02FC6344E8
:102B000000FA02FCC2F12002BCF1004F20FA02F2EE
:102B100043EB020008BF20F00100704702F12002E1
:102B200001FA02FCC2F1200250EA4C0021FA02F242
:102B300043EB020008BF20EADC7070474FF0FF0C47
:102B40001CEAD0521EBF1CEAD15392EA0C0F93EA42
:102B50000C0F6FD01A4480EA010C400218BF5FEAE4
:102B600041211ED04FF0006343EA501043EA511157
:102B7000A0FB01310CF00040B1F5000F3EBF490051
:102B800041EAD3715B0040EA010062F17F02FD2A55
:102B90001DD8B3F1004F40EBC25008BF20F0010038
:102BA000704790F0000F0CF0004C08BF49024CEA4F
:102BB000502040EA51207F3AC2BFD2F1FF0340EAE1
:102BC000C250704740F400004FF00003013A5DDC52
:102BD00012F1190FDCBF00F000407047C2F1000293
:102BE000410021FA02F1C2F1200200FA02FC5FEA80
:102BF000310040F1000053EA4C0308BF20EADC70CA
:102C0000704792F0000F00F0004C02BF400010F43B
:102C1000000F013AF9D040EA0C0093F0000F01F0E8
:102C2000004C02BF490011F4000F013BF9D041EA0A
:102C30000C018FE70CEAD15392EA0C0F18BF93EA0C
:102C40000C0F0AD030F0004C18BF31F0004CD8D136
:102C500080EA010000F00040704790F0000F17BFBD
:102C600090F0004F084691F0000F91F0004F14D003
:102C700092EA0C0F01D142020FD193EA0C0F03D15B
:102C80004B0218BF084608D180EA010000F000405E
:102C900040F0FE4040F40000704740F0FE4040F439
:102CA000400070474FF0FF0C1CEAD0521EBF1CEAD8
:102CB000D15392EA0C0F93EA0C0F69D0A2EB0302F6
:102CC00080EA010C49024FEA402037D04FF0805390
:102CD00043EA111143EA10130CF000408B4238BF55
:102CE0005B0042F17D024FF4000C8B4224BF5B1A63
:102CF00040EA0C00B3EB510F24BFA3EB510340EAB1
:102D00005C00B3EB910F24BFA3EB910340EA9C005E
:102D1000B3EBD10F24BFA3EBD10340EADC001B01CE
:102D200018BF5FEA1C1CE0D1FD2A3FF650AF8B4272
:102D300040EBC25008BF20F0010070470CF0004C7F
:102D40004CEA50207F32C2BFD2F1FF0340EAC250AA
:102D5000704740F400004FF00003013A37E792F06B
:102D6000000F00F0004C02BF400010F4000F013AC9
:102D7000F9D040EA0C0093F0000F01F0004C02BFC4
:102D8000490011F4000F013BF9D041EA0C0195E72D
:102D90000CEAD15392EA0C0F08D142027FF47DAFC6
:102DA00093EA0C0F7FF470AF084676E793EA0C0FB6
:102DB00004D14B023FF44CAF08466EE730F0004CB4
:102DC00018BF31F0004CCAD130F000427FF45CAF44
:102DD00031F000437FF43CAF5FE700BF4FF0FF3CB2
:102DE00006E000BF4FF0010C02E000BF4FF0010C05
:102DF0004DF804CD4FEA40024FEA41037FEA226CCE
:102E000018BF7FEA236C11D001B052EA530C18BFEF
:102E100090EA010F58BFB2EB030088BFC81738BF54
:102E20006FEAE17018BF40F0010070477FEA226C42
:102E300002D15FEA402C05D17FEA236CE4D15FEA3E
:102E4000412CE1D05DF8040B704700BF8446084672
:102E50006146FFE70FB5FFF7C9FF002848BF10F133
:102E6000000F0FBD4DF808EDFFF7F4FF0CBF012078
:102E700000205DF808FB00BF4DF808EDFFF7EAFF02
:102E800034BF012000205DF808FB00BF4DF808EDBD
:102E9000FFF7E0FF94BF012000205DF808FB00BFB2
:102EA0004DF808EDFFF7D2FF94BF012000205DF838
:102EB00008FB00BF4DF808EDFFF7C8FF34BF012045
:102EC00000205DF808FB00BF4FEA4002B2F1FE4F60
:102ED0000FD34FF09E03B3EB12620DD94FEA0023DC
:102EE00043F0004310F0004F23FA02F018BF4042B5
:102EF00070474FF00000704712F1610F01D142029C
:102F000005D110F0004008BF6FF0004070474FF04F
:102F10000000704708B5074B044613B10021AFF31A
:102F20000080054B1868836A03B19847204600F07B
:102F300033F800BF00000000B82F000870B50E4B3A
:102F40000E4D0024ED1AAD101E4603E056F8242065
:102F500090470134AC42F9D100F020F8084D094BFC
:102F60000024ED1AAD101E4603E056F824209047C9
:102F70000134AC42F9D170BD9000002090000020D7
:102F800094000020900000208218034601E003F81E
:102F9000011B9342FBD17047FEE700BFF8B500BFAD
:102FA000F8BC08BC9E467047F8B500BFF8BC08BC2A
:102FB0009E467047430000003000002000000000E3
:082FC00080D1FF7F0100000039
:102FC80002040608000000000102030401020304D1
:102FD80006070809010000000000803F0000A0412A
:102FE8000000803F01000000010000000000A04137
:102FF80000000000000000000000000000000000C9
:1030080000000000000000000000000000000000B8
:10301800B42F0008000000000000000000000000BD
:103028000000000000000000000000000000000098
:103038000000000000000000000000000000000088
:103048000000000000000000000000000000000078
:0830580011010008ED00000861
:0400000508000000EF
:00000001FF
